{
  "contractName": "ERC721",
  "abi": [
    {
      "inputs": [],
      "stateMutability": "nonpayable",
      "type": "constructor"
    },
    {
      "anonymous": false,
      "inputs": [
        {
          "indexed": true,
          "internalType": "address",
          "name": "_owner",
          "type": "address"
        },
        {
          "indexed": true,
          "internalType": "address",
          "name": "_approved",
          "type": "address"
        },
        {
          "indexed": true,
          "internalType": "uint256",
          "name": "_tokenId",
          "type": "uint256"
        }
      ],
      "name": "Approval",
      "type": "event"
    },
    {
      "anonymous": false,
      "inputs": [
        {
          "indexed": true,
          "internalType": "address",
          "name": "_from",
          "type": "address"
        },
        {
          "indexed": true,
          "internalType": "address",
          "name": "_to",
          "type": "address"
        },
        {
          "indexed": true,
          "internalType": "uint256",
          "name": "_tokenId",
          "type": "uint256"
        }
      ],
      "name": "Transfer",
      "type": "event"
    },
    {
      "inputs": [
        {
          "internalType": "bytes4",
          "name": "interfaceID",
          "type": "bytes4"
        }
      ],
      "name": "supportsInterface",
      "outputs": [
        {
          "internalType": "bool",
          "name": "",
          "type": "bool"
        }
      ],
      "stateMutability": "view",
      "type": "function"
    },
    {
      "inputs": [
        {
          "internalType": "address",
          "name": "_owner",
          "type": "address"
        }
      ],
      "name": "balanceOf",
      "outputs": [
        {
          "internalType": "uint256",
          "name": "",
          "type": "uint256"
        }
      ],
      "stateMutability": "view",
      "type": "function"
    },
    {
      "inputs": [
        {
          "internalType": "uint256",
          "name": "_tokenId",
          "type": "uint256"
        }
      ],
      "name": "ownerOf",
      "outputs": [
        {
          "internalType": "address",
          "name": "",
          "type": "address"
        }
      ],
      "stateMutability": "view",
      "type": "function"
    },
    {
      "inputs": [
        {
          "internalType": "address",
          "name": "_to",
          "type": "address"
        },
        {
          "internalType": "uint256",
          "name": "_tokenId",
          "type": "uint256"
        }
      ],
      "name": "approve",
      "outputs": [],
      "stateMutability": "nonpayable",
      "type": "function"
    },
    {
      "inputs": [
        {
          "internalType": "address",
          "name": "_from",
          "type": "address"
        },
        {
          "internalType": "address",
          "name": "_to",
          "type": "address"
        },
        {
          "internalType": "uint256",
          "name": "_tokenId",
          "type": "uint256"
        }
      ],
      "name": "transferFrom",
      "outputs": [],
      "stateMutability": "nonpayable",
      "type": "function"
    }
  ],
  "bytecode": "0x608060405234801561001057600080fd5b506100407f01ffc9a7a5cef8baa21ed3c5c0d7e23accb804b619e9333b597f47a0d84076e26100b860201b60201c565b6100b37f22c82707ba960a14c7592ffb6b8cfaa073fed0048a84cc7fa41f6b5bd8e7f2e47f92388445856e61503b41d1379bd8ec24a561960eb0fca2f7debf8bc71ee58ba67f8a7e378434598edc36d108689a030cbc9d7d465de4f74c71bae1028eed6a881b18186100b860201b60201c565b610209565b63ffffffff60e01b817bffffffffffffffffffffffffffffffffffffffffffffffffffffffff191603610120576040517f08c379a0000000000000000000000000000000000000000000000000000000008152600401610117906101e9565b60405180910390fd5b6001600080837bffffffffffffffffffffffffffffffffffffffffffffffffffffffff19167bffffffffffffffffffffffffffffffffffffffffffffffffffffffff1916815260200190815260200160002060006101000a81548160ff02191690831515021790555050565b600082825260208201905092915050565b7f496e76616c696420696e74657266616365207265717565737400000000000000600082015250565b60006101d360198361018c565b91506101de8261019d565b602082019050919050565b60006020820190508181036000830152610202816101c6565b9050919050565b610e2e806102186000396000f3fe608060405234801561001057600080fd5b50600436106100575760003560e01c806301ffc9a71461005c578063095ea7b31461008c57806323b872dd146100a85780636352211e146100c457806370a08231146100f4575b600080fd5b6100766004803603810190610071919061081e565b610124565b6040516100839190610866565b60405180910390f35b6100a660048036038101906100a19190610915565b61018b565b005b6100c260048036038101906100bd9190610955565b610326565b005b6100de60048036038101906100d991906109a8565b610349565b6040516100eb91906109e4565b60405180910390f35b61010e600480360381019061010991906109ff565b6103c4565b60405161011b9190610a3b565b60405180910390f35b6000806000837bffffffffffffffffffffffffffffffffffffffffffffffffffffffff19167bffffffffffffffffffffffffffffffffffffffffffffffffffffffff1916815260200190815260200160002060009054906101000a900460ff169050919050565b600061019682610349565b90508073ffffffffffffffffffffffffffffffffffffffff168373ffffffffffffffffffffffffffffffffffffffff1603610206576040517f08c379a00000000000000000000000000000000000000000000000000000000081526004016101fd90610ab3565b60405180910390fd5b8073ffffffffffffffffffffffffffffffffffffffff163373ffffffffffffffffffffffffffffffffffffffff1614610274576040517f08c379a000000000000000000000000000000000000000000000000000000000815260040161026b90610b45565b60405180910390fd5b826003600084815260200190815260200160002060006101000a81548173ffffffffffffffffffffffffffffffffffffffff021916908373ffffffffffffffffffffffffffffffffffffffff160217905550818373ffffffffffffffffffffffffffffffffffffffff168273ffffffffffffffffffffffffffffffffffffffff167f8c5be1e5ebec7d5bd14f71427d1e84f3dd0314c0f7b2291e5b200ac8c7c3b92560405160405180910390a4505050565b610330338261047b565b61033957600080fd5b61034483838361050a565b505050565b6000806001600084815260200190815260200160002060009054906101000a900473ffffffffffffffffffffffffffffffffffffffff169050600073ffffffffffffffffffffffffffffffffffffffff168173ffffffffffffffffffffffffffffffffffffffff16036103bb57600080fd5b80915050919050565b60008073ffffffffffffffffffffffffffffffffffffffff168273ffffffffffffffffffffffffffffffffffffffff1603610434576040517f08c379a000000000000000000000000000000000000000000000000000000000815260040161042b90610bb1565b60405180910390fd5b600260008373ffffffffffffffffffffffffffffffffffffffff1673ffffffffffffffffffffffffffffffffffffffff168152602001908152602001600020549050919050565b60006104868261074f565b6104c5576040517f08c379a00000000000000000000000000000000000000000000000000000000081526004016104bc90610c1d565b60405180910390fd5b60006104d083610349565b90508073ffffffffffffffffffffffffffffffffffffffff168473ffffffffffffffffffffffffffffffffffffffff161491505092915050565b600073ffffffffffffffffffffffffffffffffffffffff168273ffffffffffffffffffffffffffffffffffffffff1603610579576040517f08c379a000000000000000000000000000000000000000000000000000000000815260040161057090610c89565b60405180910390fd5b8273ffffffffffffffffffffffffffffffffffffffff1661059982610349565b73ffffffffffffffffffffffffffffffffffffffff16146105ef576040517f08c379a00000000000000000000000000000000000000000000000000000000081526004016105e690610d41565b60405180910390fd5b816001600083815260200190815260200160002060006101000a81548173ffffffffffffffffffffffffffffffffffffffff021916908373ffffffffffffffffffffffffffffffffffffffff1602179055506001600260008573ffffffffffffffffffffffffffffffffffffffff1673ffffffffffffffffffffffffffffffffffffffff16815260200190815260200160002060008282546106919190610d90565b925050819055506001600260008473ffffffffffffffffffffffffffffffffffffffff1673ffffffffffffffffffffffffffffffffffffffff16815260200190815260200160002060008282546106e89190610dc4565b92505081905550808273ffffffffffffffffffffffffffffffffffffffff168473ffffffffffffffffffffffffffffffffffffffff167fddf252ad1be2c89b69c2b068fc378daa952ba7f163c4a11628f55a4df523b3ef60405160405180910390a4505050565b6000806001600084815260200190815260200160002060009054906101000a900473ffffffffffffffffffffffffffffffffffffffff169050600073ffffffffffffffffffffffffffffffffffffffff168173ffffffffffffffffffffffffffffffffffffffff161415915050919050565b600080fd5b60007fffffffff0000000000000000000000000000000000000000000000000000000082169050919050565b6107fb816107c6565b811461080657600080fd5b50565b600081359050610818816107f2565b92915050565b600060208284031215610834576108336107c1565b5b600061084284828501610809565b91505092915050565b60008115159050919050565b6108608161084b565b82525050565b600060208201905061087b6000830184610857565b92915050565b600073ffffffffffffffffffffffffffffffffffffffff82169050919050565b60006108ac82610881565b9050919050565b6108bc816108a1565b81146108c757600080fd5b50565b6000813590506108d9816108b3565b92915050565b6000819050919050565b6108f2816108df565b81146108fd57600080fd5b50565b60008135905061090f816108e9565b92915050565b6000806040838503121561092c5761092b6107c1565b5b600061093a858286016108ca565b925050602061094b85828601610900565b9150509250929050565b60008060006060848603121561096e5761096d6107c1565b5b600061097c868287016108ca565b935050602061098d868287016108ca565b925050604061099e86828701610900565b9150509250925092565b6000602082840312156109be576109bd6107c1565b5b60006109cc84828501610900565b91505092915050565b6109de816108a1565b82525050565b60006020820190506109f960008301846109d5565b92915050565b600060208284031215610a1557610a146107c1565b5b6000610a23848285016108ca565b91505092915050565b610a35816108df565b82525050565b6000602082019050610a506000830184610a2c565b92915050565b600082825260208201905092915050565b7f4572726f72206170726f76616c20746f2063757272656e74206f776e65720000600082015250565b6000610a9d601e83610a56565b9150610aa882610a67565b602082019050919050565b60006020820190508181036000830152610acc81610a90565b9050919050565b7f43757272656e742063616c6c6572206973206e6f7420746865206f776e65722060008201527f6f662074686520746f6b656e0000000000000000000000000000000000000000602082015250565b6000610b2f602c83610a56565b9150610b3a82610ad3565b604082019050919050565b60006020820190508181036000830152610b5e81610b22565b9050919050565b7f4552433732313a2041646472657373202073686f756c64206e6f742062652030600082015250565b6000610b9b602083610a56565b9150610ba682610b65565b602082019050919050565b60006020820190508181036000830152610bca81610b8e565b9050919050565b7f746f6b656e20646f6573206e6f74206578697374000000000000000000000000600082015250565b6000610c07601483610a56565b9150610c1282610bd1565b602082019050919050565b60006020820190508181036000830152610c3681610bfa565b9050919050565b7f4572726f7220455243373231205472616e736665720000000000000000000000600082015250565b6000610c73601583610a56565b9150610c7e82610c3d565b602082019050919050565b60006020820190508181036000830152610ca281610c66565b9050919050565b7f4572726f7220455243373231202c547279696e6720746f207472616e7366657260008201527f206120746f6b656e20746865206164647265737320646f6573206e6f74206f7760208201527f6e20000000000000000000000000000000000000000000000000000000000000604082015250565b6000610d2b604283610a56565b9150610d3682610ca9565b606082019050919050565b60006020820190508181036000830152610d5a81610d1e565b9050919050565b7f4e487b7100000000000000000000000000000000000000000000000000000000600052601160045260246000fd5b6000610d9b826108df565b9150610da6836108df565b9250828203905081811115610dbe57610dbd610d61565b5b92915050565b6000610dcf826108df565b9150610dda836108df565b9250828201905080821115610df257610df1610d61565b5b9291505056fea264697066735822122046510b6a6578ea65daaa4cdb73ba660eacb1f7010ca0851e1e2ea09573064b2464736f6c63430008110033",
  "immutableReferences": {},
  "source": " // SPDX-License-Identifier: MIT\r\npragma solidity ^0.8.0;\r\n\r\n\r\nimport './ERC165.sol';\r\nimport './interfaces/IERC721.sol';\r\n\r\n\r\n   /* \r\n    \r\n        building out the mintin function:\r\n    a. nft to point to an address\r\n    b. keep track of the token ids\r\n    c. keep track of token owner addressses to token ids\r\n    d. keep track of how many tokens an owner addresss has\r\n    e. create an event the  emits a transfer log\r\n    \r\n    */\r\ncontract ERC721 is ERC165, IERC721 {\r\n\r\n \r\n \r\n //mapping from token id to the owner\r\n mapping (uint256 => address) private _tokenOwner;\r\n\r\n//mapping from owner to number of owned tokens\r\n mapping (address => uint256) private _tokensOwnedCount;\r\n\r\n //mapping from token id to approved addresses\r\n\r\n mapping (uint256 => address) private _tokenApproval;\r\n\r\n\r\n \r\n\r\n  constructor(){\r\n        _registerInterface(bytes4(keccak256('balanceOf(bytes4)')^\r\n        keccak256('OwnerOf(bytes4)')^keccak256('transferFrom(bytes4)')\r\n        ));\r\n     } \r\n\r\n function balanceOf(address _owner) public override view returns (uint256)  {\r\n    require(_owner != address(0), 'ERC721: Address  should not be 0');\r\n    return _tokensOwnedCount[_owner];\r\n }\r\n\r\n //Find an owner of NFT\r\n function ownerOf(uint256 _tokenId) public override view returns(address) {\r\n    address owner = _tokenOwner[_tokenId];\r\n    require(owner != address(0));\r\n    return owner;\r\n }\r\n\r\nfunction _exists(uint256 tokenId) internal view returns(bool){\r\n    address owner = _tokenOwner[tokenId];\r\n    return owner !=address(0);\r\n}\r\n\r\n //building a mintin function\r\n\r\n // function _mint is virtual , because we are overwriting it in ERC721Enumerable.sol, and also using it in NFT.sol\r\n function _mint (address to , uint256 tokenId) internal virtual{\r\n    //requires that address is not 0\r\n    require(to != address(0), 'The required address should not be 0'); // require address not to be 0\r\n    //requires that token does not exiists\r\n    require(!_exists(tokenId), 'ERC721: token already minted'); \r\n    _tokenOwner[tokenId] = to;\r\n    //keeping track of each address that is minting and adding one\r\n    _tokensOwnedCount[to] +=1;\r\n\r\n    emit Transfer(address(0), to, tokenId);\r\n    \r\n }\r\n\r\n function _transferFrom(address _from, address _to, uint256 _tokenId) internal {\r\n   require(_to !=address(0), 'Error ERC721 Transfer');\r\n   require(ownerOf(_tokenId) == _from, 'Error ERC721 ,Trying to transfer a token the address does not own ');\r\n   \r\n   _tokenOwner[_tokenId] = _to;\r\n   _tokensOwnedCount[_from] -=1;\r\n   _tokensOwnedCount[_to] +=1;\r\n\r\n   emit Transfer(_from, _to, _tokenId);\r\n }\r\n\r\n   function approve(address _to, uint256 _tokenId)  public {\r\n      address owner = ownerOf(_tokenId);\r\n      require (_to !=owner, 'Error aproval to current owner');\r\n      require (msg.sender == owner, 'Current caller is not the owner of the token');\r\n      _tokenApproval[_tokenId] = _to;\r\n      emit Approval(owner, _to, _tokenId);\r\n\r\n   }\r\n\r\n   function isApprovedOrOwner(address spender, uint256 _tokenId) internal view returns(bool){\r\n      require(_exists(_tokenId),'token does not exist');\r\n      address owner  = ownerOf(_tokenId);\r\n      return(spender == owner);   \r\n      }\r\n\r\n   function transferFrom(address _from, address _to, uint256 _tokenId) public override {\r\n   require(isApprovedOrOwner(msg.sender, _tokenId));\r\n   _transferFrom (_from, _to, _tokenId);\r\n }\r\n\r\n}",
  "sourcePath": "C:\\Users\\Xcom\\Desktop\\THESIS\\code\\nft-marketplace - Copy\\src\\contracts\\ERC721.sol",
  "compiler": {
    "name": "solc",
    "version": "0.8.17+commit.8df45f5f.Emscripten.clang"
  },
  "schemaVersion": "3.4.9",
  "updatedAt": "2022-12-03T01:51:44.947Z",
  "devdoc": {
    "kind": "dev",
    "methods": {
      "supportsInterface(bytes4)": {
        "details": "Interface identification is specified in ERC-165. This function  uses less than 30,000 gas.",
        "params": {
          "interfaceID": "The interface identifier, as specified in ERC-165"
        },
        "returns": {
          "_0": "`true` if the contract implements `interfaceID` and  `interfaceID` is not 0xffffffff, `false` otherwise"
        }
      }
    },
    "version": 1
  },
  "userdoc": {
    "kind": "user",
    "methods": {
      "supportsInterface(bytes4)": {
        "notice": "Query if a contract implements an interface"
      }
    },
    "version": 1
  }
}