{
  "contractName": "NFT",
  "abi": [
    {
      "inputs": [],
      "stateMutability": "nonpayable",
      "type": "constructor"
    },
    {
      "anonymous": false,
      "inputs": [
        {
          "indexed": true,
          "internalType": "address",
          "name": "_owner",
          "type": "address"
        },
        {
          "indexed": true,
          "internalType": "address",
          "name": "_approved",
          "type": "address"
        },
        {
          "indexed": true,
          "internalType": "uint256",
          "name": "_tokenId",
          "type": "uint256"
        }
      ],
      "name": "Approval",
      "type": "event"
    },
    {
      "anonymous": false,
      "inputs": [
        {
          "indexed": true,
          "internalType": "address",
          "name": "_from",
          "type": "address"
        },
        {
          "indexed": true,
          "internalType": "address",
          "name": "_to",
          "type": "address"
        },
        {
          "indexed": true,
          "internalType": "uint256",
          "name": "_tokenId",
          "type": "uint256"
        }
      ],
      "name": "Transfer",
      "type": "event"
    },
    {
      "inputs": [
        {
          "internalType": "address",
          "name": "_to",
          "type": "address"
        },
        {
          "internalType": "uint256",
          "name": "_tokenId",
          "type": "uint256"
        }
      ],
      "name": "approve",
      "outputs": [],
      "stateMutability": "nonpayable",
      "type": "function"
    },
    {
      "inputs": [
        {
          "internalType": "address",
          "name": "_owner",
          "type": "address"
        }
      ],
      "name": "balanceOf",
      "outputs": [
        {
          "internalType": "uint256",
          "name": "",
          "type": "uint256"
        }
      ],
      "stateMutability": "view",
      "type": "function",
      "constant": true
    },
    {
      "inputs": [],
      "name": "name",
      "outputs": [
        {
          "internalType": "string",
          "name": "",
          "type": "string"
        }
      ],
      "stateMutability": "view",
      "type": "function",
      "constant": true
    },
    {
      "inputs": [
        {
          "internalType": "uint256",
          "name": "",
          "type": "uint256"
        }
      ],
      "name": "nftArray",
      "outputs": [
        {
          "internalType": "string",
          "name": "",
          "type": "string"
        }
      ],
      "stateMutability": "view",
      "type": "function",
      "constant": true
    },
    {
      "inputs": [
        {
          "internalType": "uint256",
          "name": "_tokenId",
          "type": "uint256"
        }
      ],
      "name": "ownerOf",
      "outputs": [
        {
          "internalType": "address",
          "name": "",
          "type": "address"
        }
      ],
      "stateMutability": "view",
      "type": "function",
      "constant": true
    },
    {
      "inputs": [
        {
          "internalType": "bytes4",
          "name": "interfaceID",
          "type": "bytes4"
        }
      ],
      "name": "supportsInterface",
      "outputs": [
        {
          "internalType": "bool",
          "name": "",
          "type": "bool"
        }
      ],
      "stateMutability": "view",
      "type": "function",
      "constant": true
    },
    {
      "inputs": [],
      "name": "symbol",
      "outputs": [
        {
          "internalType": "string",
          "name": "",
          "type": "string"
        }
      ],
      "stateMutability": "view",
      "type": "function",
      "constant": true
    },
    {
      "inputs": [
        {
          "internalType": "uint256",
          "name": "index",
          "type": "uint256"
        }
      ],
      "name": "tokenByIndex",
      "outputs": [
        {
          "internalType": "uint256",
          "name": "",
          "type": "uint256"
        }
      ],
      "stateMutability": "view",
      "type": "function",
      "constant": true
    },
    {
      "inputs": [
        {
          "internalType": "address",
          "name": "owner",
          "type": "address"
        },
        {
          "internalType": "uint256",
          "name": "index",
          "type": "uint256"
        }
      ],
      "name": "tokenOfOwnerByIndex",
      "outputs": [
        {
          "internalType": "uint256",
          "name": "",
          "type": "uint256"
        }
      ],
      "stateMutability": "view",
      "type": "function",
      "constant": true
    },
    {
      "inputs": [],
      "name": "totalSupply",
      "outputs": [
        {
          "internalType": "uint256",
          "name": "",
          "type": "uint256"
        }
      ],
      "stateMutability": "view",
      "type": "function",
      "constant": true
    },
    {
      "inputs": [
        {
          "internalType": "address",
          "name": "_from",
          "type": "address"
        },
        {
          "internalType": "address",
          "name": "_to",
          "type": "address"
        },
        {
          "internalType": "uint256",
          "name": "_tokenId",
          "type": "uint256"
        }
      ],
      "name": "transferFrom",
      "outputs": [],
      "stateMutability": "nonpayable",
      "type": "function"
    },
    {
      "inputs": [
        {
          "internalType": "string",
          "name": "_nft",
          "type": "string"
        }
      ],
      "name": "mint",
      "outputs": [],
      "stateMutability": "nonpayable",
      "type": "function"
    }
  ],
  "bytecode": "0x60806040523480156200001157600080fd5b506040518060400160405280600381526020017f4e465400000000000000000000000000000000000000000000000000000000008152506040518060400160405280600381526020017f4e465400000000000000000000000000000000000000000000000000000000008152508181620000b17f01ffc9a7a5cef8baa21ed3c5c0d7e23accb804b619e9333b597f47a0d84076e26200021c60201b60201c565b620001047f13b182f4c0e5b2efbac0efe6cf6d756c8b89f4b79c5707a043ed9ea740574ee97f7feaf19471f34a12a7eaf32d5f3090aa2260ea8624dc8a138e74e0bf0f623076186200021c60201b60201c565b81600190816200011591906200056d565b5080600290816200012791906200056d565b5050506200019f7f22c82707ba960a14c7592ffb6b8cfaa073fed0048a84cc7fa41f6b5bd8e7f2e47f92388445856e61503b41d1379bd8ec24a561960eb0fca2f7debf8bc71ee58ba67f8a7e378434598edc36d108689a030cbc9d7d465de4f74c71bae1028eed6a881b18186200021c60201b60201c565b620002147fbc56e7aea2cdacd3a7bc58cc41882b11f850ebe6b3e35823707169729769246a7f6da5e1284143cdd2d15038a59bde3be031250f00291d64494c12d967b3a4e0c37f8bbb665dec2ba3148acfcd895fe24b54a7425d7b56c31a1d9383968a0a5a010c18186200021c60201b60201c565b5050620006d7565b63ffffffff60e01b817bffffffffffffffffffffffffffffffffffffffffffffffffffffffff19160362000287576040517f08c379a00000000000000000000000000000000000000000000000000000000081526004016200027e90620006b5565b60405180910390fd5b6001600080837bffffffffffffffffffffffffffffffffffffffffffffffffffffffff19167bffffffffffffffffffffffffffffffffffffffffffffffffffffffff1916815260200190815260200160002060006101000a81548160ff02191690831515021790555050565b600081519050919050565b7f4e487b7100000000000000000000000000000000000000000000000000000000600052604160045260246000fd5b7f4e487b7100000000000000000000000000000000000000000000000000000000600052602260045260246000fd5b600060028204905060018216806200037557607f821691505b6020821081036200038b576200038a6200032d565b5b50919050565b60008190508160005260206000209050919050565b60006020601f8301049050919050565b600082821b905092915050565b600060088302620003f57fffffffffffffffffffffffffffffffffffffffffffffffffffffffffffffffff82620003b6565b620004018683620003b6565b95508019841693508086168417925050509392505050565b6000819050919050565b6000819050919050565b60006200044e62000448620004428462000419565b62000423565b62000419565b9050919050565b6000819050919050565b6200046a836200042d565b62000482620004798262000455565b848454620003c3565b825550505050565b600090565b620004996200048a565b620004a68184846200045f565b505050565b5b81811015620004ce57620004c26000826200048f565b600181019050620004ac565b5050565b601f8211156200051d57620004e78162000391565b620004f284620003a6565b8101602085101562000502578190505b6200051a6200051185620003a6565b830182620004ab565b50505b505050565b600082821c905092915050565b6000620005426000198460080262000522565b1980831691505092915050565b60006200055d83836200052f565b9150826002028217905092915050565b6200057882620002f3565b67ffffffffffffffff811115620005945762000593620002fe565b5b620005a082546200035c565b620005ad828285620004d2565b600060209050601f831160018114620005e55760008415620005d0578287015190505b620005dc85826200054f565b8655506200064c565b601f198416620005f58662000391565b60005b828110156200061f57848901518255600182019150602085019450602081019050620005f8565b868310156200063f57848901516200063b601f8916826200052f565b8355505b6001600288020188555050505b505050505050565b600082825260208201905092915050565b7f496e76616c696420696e74657266616365207265717565737400000000000000600082015250565b60006200069d60198362000654565b9150620006aa8262000665565b602082019050919050565b60006020820190508181036000830152620006d0816200068e565b9050919050565b611e4a80620006e76000396000f3fe608060405234801561001057600080fd5b50600436106100b45760003560e01c80634f6ccce7116100715780634f6ccce71461018d5780636352211e146101bd57806370a08231146101ed57806395d89b411461021d578063c33d23ad1461023b578063d85d3d271461026b576100b4565b806301ffc9a7146100b957806306fdde03146100e9578063095ea7b31461010757806318160ddd1461012357806323b872dd146101415780632f745c591461015d575b600080fd5b6100d360048036038101906100ce9190611079565b610287565b6040516100e091906110c1565b60405180910390f35b6100f16102ee565b6040516100fe919061116c565b60405180910390f35b610121600480360381019061011c9190611222565b610380565b005b61012b61051b565b6040516101389190611271565b60405180910390f35b61015b6004803603810190610156919061128c565b610528565b005b61017760048036038101906101729190611222565b61054b565b6040516101849190611271565b60405180910390f35b6101a760048036038101906101a291906112df565b6105fb565b6040516101b49190611271565b60405180910390f35b6101d760048036038101906101d291906112df565b61066c565b6040516101e4919061131b565b60405180910390f35b61020760048036038101906102029190611336565b6106e7565b6040516102149190611271565b60405180910390f35b61022561079e565b604051610232919061116c565b60405180910390f35b610255600480360381019061025091906112df565b610830565b604051610262919061116c565b60405180910390f35b61028560048036038101906102809190611498565b6108dc565b005b6000806000837bffffffffffffffffffffffffffffffffffffffffffffffffffffffff19167bffffffffffffffffffffffffffffffffffffffffffffffffffffffff1916815260200190815260200160002060009054906101000a900460ff169050919050565b6060600180546102fd90611510565b80601f016020809104026020016040519081016040528092919081815260200182805461032990611510565b80156103765780601f1061034b57610100808354040283529160200191610376565b820191906000526020600020905b81548152906001019060200180831161035957829003601f168201915b5050505050905090565b600061038b8261066c565b90508073ffffffffffffffffffffffffffffffffffffffff168373ffffffffffffffffffffffffffffffffffffffff16036103fb576040517f08c379a00000000000000000000000000000000000000000000000000000000081526004016103f29061158d565b60405180910390fd5b8073ffffffffffffffffffffffffffffffffffffffff163373ffffffffffffffffffffffffffffffffffffffff1614610469576040517f08c379a00000000000000000000000000000000000000000000000000000000081526004016104609061161f565b60405180910390fd5b826005600084815260200190815260200160002060006101000a81548173ffffffffffffffffffffffffffffffffffffffff021916908373ffffffffffffffffffffffffffffffffffffffff160217905550818373ffffffffffffffffffffffffffffffffffffffff168273ffffffffffffffffffffffffffffffffffffffff167f8c5be1e5ebec7d5bd14f71427d1e84f3dd0314c0f7b2291e5b200ac8c7c3b92560405160405180910390a4505050565b6000600680549050905090565b61053233826109d8565b61053b57600080fd5b610546838383610a67565b505050565b6000610556836106e7565b8210610597576040517f08c379a000000000000000000000000000000000000000000000000000000000815260040161058e9061168b565b60405180910390fd5b600860008473ffffffffffffffffffffffffffffffffffffffff1673ffffffffffffffffffffffffffffffffffffffff16815260200190815260200160002082815481106105e8576105e76116ab565b5b9060005260206000200154905092915050565b600061060561051b565b8210610646576040517f08c379a000000000000000000000000000000000000000000000000000000000815260040161063d90611726565b60405180910390fd5b6006828154811061065a576106596116ab565b5b90600052602060002001549050919050565b6000806003600084815260200190815260200160002060009054906101000a900473ffffffffffffffffffffffffffffffffffffffff169050600073ffffffffffffffffffffffffffffffffffffffff168173ffffffffffffffffffffffffffffffffffffffff16036106de57600080fd5b80915050919050565b60008073ffffffffffffffffffffffffffffffffffffffff168273ffffffffffffffffffffffffffffffffffffffff1603610757576040517f08c379a000000000000000000000000000000000000000000000000000000000815260040161074e90611792565b60405180910390fd5b600460008373ffffffffffffffffffffffffffffffffffffffff1673ffffffffffffffffffffffffffffffffffffffff168152602001908152602001600020549050919050565b6060600280546107ad90611510565b80601f01602080910402602001604051908101604052809291908181526020018280546107d990611510565b80156108265780601f106107fb57610100808354040283529160200191610826565b820191906000526020600020905b81548152906001019060200180831161080957829003601f168201915b5050505050905090565b600a818154811061084057600080fd5b90600052602060002001600091509050805461085b90611510565b80601f016020809104026020016040519081016040528092919081815260200182805461088790611510565b80156108d45780601f106108a9576101008083540402835291602001916108d4565b820191906000526020600020905b8154815290600101906020018083116108b757829003601f168201915b505050505081565b600b816040516108ec91906117ee565b908152602001604051809103902060009054906101000a900460ff1615610948576040517f08c379a000000000000000000000000000000000000000000000000000000000815260040161093f90611851565b60405180910390fd5b600a8190806001815401808255809150506001900390600052602060002001600090919091909150908161097c9190611a1d565b5060006001600a805490506109919190611b1e565b905061099d3382610cac565b6001600b836040516109af91906117ee565b908152602001604051809103902060006101000a81548160ff0219169083151502179055505050565b60006109e382610ccd565b610a22576040517f08c379a0000000000000000000000000000000000000000000000000000000008152600401610a1990611b9e565b60405180910390fd5b6000610a2d8361066c565b90508073ffffffffffffffffffffffffffffffffffffffff168473ffffffffffffffffffffffffffffffffffffffff161491505092915050565b600073ffffffffffffffffffffffffffffffffffffffff168273ffffffffffffffffffffffffffffffffffffffff1603610ad6576040517f08c379a0000000000000000000000000000000000000000000000000000000008152600401610acd90611c0a565b60405180910390fd5b8273ffffffffffffffffffffffffffffffffffffffff16610af68261066c565b73ffffffffffffffffffffffffffffffffffffffff1614610b4c576040517f08c379a0000000000000000000000000000000000000000000000000000000008152600401610b4390611cc2565b60405180910390fd5b816003600083815260200190815260200160002060006101000a81548173ffffffffffffffffffffffffffffffffffffffff021916908373ffffffffffffffffffffffffffffffffffffffff1602179055506001600460008573ffffffffffffffffffffffffffffffffffffffff1673ffffffffffffffffffffffffffffffffffffffff1681526020019081526020016000206000828254610bee9190611b1e565b925050819055506001600460008473ffffffffffffffffffffffffffffffffffffffff1673ffffffffffffffffffffffffffffffffffffffff1681526020019081526020016000206000828254610c459190611ce2565b92505081905550808273ffffffffffffffffffffffffffffffffffffffff168473ffffffffffffffffffffffffffffffffffffffff167fddf252ad1be2c89b69c2b068fc378daa952ba7f163c4a11628f55a4df523b3ef60405160405180910390a4505050565b610cb68282610d3f565b610cbf81610f00565b610cc98282610f49565b5050565b6000806003600084815260200190815260200160002060009054906101000a900473ffffffffffffffffffffffffffffffffffffffff169050600073ffffffffffffffffffffffffffffffffffffffff168173ffffffffffffffffffffffffffffffffffffffff161415915050919050565b600073ffffffffffffffffffffffffffffffffffffffff168273ffffffffffffffffffffffffffffffffffffffff1603610dae576040517f08c379a0000000000000000000000000000000000000000000000000000000008152600401610da590611d88565b60405180910390fd5b610db781610ccd565b15610df7576040517f08c379a0000000000000000000000000000000000000000000000000000000008152600401610dee90611df4565b60405180910390fd5b816003600083815260200190815260200160002060006101000a81548173ffffffffffffffffffffffffffffffffffffffff021916908373ffffffffffffffffffffffffffffffffffffffff1602179055506001600460008473ffffffffffffffffffffffffffffffffffffffff1673ffffffffffffffffffffffffffffffffffffffff1681526020019081526020016000206000828254610e999190611ce2565b92505081905550808273ffffffffffffffffffffffffffffffffffffffff16600073ffffffffffffffffffffffffffffffffffffffff167fddf252ad1be2c89b69c2b068fc378daa952ba7f163c4a11628f55a4df523b3ef60405160405180910390a45050565b6006805490506007600083815260200190815260200160002081905550600681908060018154018082558091505060019003906000526020600020016000909190919091505550565b600860008373ffffffffffffffffffffffffffffffffffffffff1673ffffffffffffffffffffffffffffffffffffffff168152602001908152602001600020819080600181540180825580915050600190039060005260206000200160009091909190915055600860008373ffffffffffffffffffffffffffffffffffffffff1673ffffffffffffffffffffffffffffffffffffffff1681526020019081526020016000208054905060096000838152602001908152602001600020819055505050565b6000604051905090565b600080fd5b600080fd5b60007fffffffff0000000000000000000000000000000000000000000000000000000082169050919050565b61105681611021565b811461106157600080fd5b50565b6000813590506110738161104d565b92915050565b60006020828403121561108f5761108e611017565b5b600061109d84828501611064565b91505092915050565b60008115159050919050565b6110bb816110a6565b82525050565b60006020820190506110d660008301846110b2565b92915050565b600081519050919050565b600082825260208201905092915050565b60005b838110156111165780820151818401526020810190506110fb565b60008484015250505050565b6000601f19601f8301169050919050565b600061113e826110dc565b61114881856110e7565b93506111588185602086016110f8565b61116181611122565b840191505092915050565b600060208201905081810360008301526111868184611133565b905092915050565b600073ffffffffffffffffffffffffffffffffffffffff82169050919050565b60006111b98261118e565b9050919050565b6111c9816111ae565b81146111d457600080fd5b50565b6000813590506111e6816111c0565b92915050565b6000819050919050565b6111ff816111ec565b811461120a57600080fd5b50565b60008135905061121c816111f6565b92915050565b6000806040838503121561123957611238611017565b5b6000611247858286016111d7565b92505060206112588582860161120d565b9150509250929050565b61126b816111ec565b82525050565b60006020820190506112866000830184611262565b92915050565b6000806000606084860312156112a5576112a4611017565b5b60006112b3868287016111d7565b93505060206112c4868287016111d7565b92505060406112d58682870161120d565b9150509250925092565b6000602082840312156112f5576112f4611017565b5b60006113038482850161120d565b91505092915050565b611315816111ae565b82525050565b6000602082019050611330600083018461130c565b92915050565b60006020828403121561134c5761134b611017565b5b600061135a848285016111d7565b91505092915050565b600080fd5b600080fd5b7f4e487b7100000000000000000000000000000000000000000000000000000000600052604160045260246000fd5b6113a582611122565b810181811067ffffffffffffffff821117156113c4576113c361136d565b5b80604052505050565b60006113d761100d565b90506113e3828261139c565b919050565b600067ffffffffffffffff8211156114035761140261136d565b5b61140c82611122565b9050602081019050919050565b82818337600083830152505050565b600061143b611436846113e8565b6113cd565b90508281526020810184848401111561145757611456611368565b5b611462848285611419565b509392505050565b600082601f83011261147f5761147e611363565b5b813561148f848260208601611428565b91505092915050565b6000602082840312156114ae576114ad611017565b5b600082013567ffffffffffffffff8111156114cc576114cb61101c565b5b6114d88482850161146a565b91505092915050565b7f4e487b7100000000000000000000000000000000000000000000000000000000600052602260045260246000fd5b6000600282049050600182168061152857607f821691505b60208210810361153b5761153a6114e1565b5b50919050565b7f4572726f72206170726f76616c20746f2063757272656e74206f776e65720000600082015250565b6000611577601e836110e7565b915061158282611541565b602082019050919050565b600060208201905081810360008301526115a68161156a565b9050919050565b7f43757272656e742063616c6c6572206973206e6f7420746865206f776e65722060008201527f6f662074686520746f6b656e0000000000000000000000000000000000000000602082015250565b6000611609602c836110e7565b9150611614826115ad565b604082019050919050565b60006020820190508181036000830152611638816115fc565b9050919050565b7f4f776e657220696e646578206973206f7574206f6620626f756e647300000000600082015250565b6000611675601c836110e7565b91506116808261163f565b602082019050919050565b600060208201905081810360008301526116a481611668565b9050919050565b7f4e487b7100000000000000000000000000000000000000000000000000000000600052603260045260246000fd5b7f476c6f62616c20696e646578206973206f7574206f6620626f756e6473000000600082015250565b6000611710601d836110e7565b915061171b826116da565b602082019050919050565b6000602082019050818103600083015261173f81611703565b9050919050565b7f4552433732313a2041646472657373202073686f756c64206e6f742062652030600082015250565b600061177c6020836110e7565b915061178782611746565b602082019050919050565b600060208201905081810360008301526117ab8161176f565b9050919050565b600081905092915050565b60006117c8826110dc565b6117d281856117b2565b93506117e28185602086016110f8565b80840191505092915050565b60006117fa82846117bd565b915081905092915050565b7f4572726f72202d204e465420616c726561647920657869737473000000000000600082015250565b600061183b601a836110e7565b915061184682611805565b602082019050919050565b6000602082019050818103600083015261186a8161182e565b9050919050565b60008190508160005260206000209050919050565b60006020601f8301049050919050565b600082821b905092915050565b6000600883026118d37fffffffffffffffffffffffffffffffffffffffffffffffffffffffffffffffff82611896565b6118dd8683611896565b95508019841693508086168417925050509392505050565b6000819050919050565b600061191a611915611910846111ec565b6118f5565b6111ec565b9050919050565b6000819050919050565b611934836118ff565b61194861194082611921565b8484546118a3565b825550505050565b600090565b61195d611950565b61196881848461192b565b505050565b5b8181101561198c57611981600082611955565b60018101905061196e565b5050565b601f8211156119d1576119a281611871565b6119ab84611886565b810160208510156119ba578190505b6119ce6119c685611886565b83018261196d565b50505b505050565b600082821c905092915050565b60006119f4600019846008026119d6565b1980831691505092915050565b6000611a0d83836119e3565b9150826002028217905092915050565b611a26826110dc565b67ffffffffffffffff811115611a3f57611a3e61136d565b5b611a498254611510565b611a54828285611990565b600060209050601f831160018114611a875760008415611a75578287015190505b611a7f8582611a01565b865550611ae7565b601f198416611a9586611871565b60005b82811015611abd57848901518255600182019150602085019450602081019050611a98565b86831015611ada5784890151611ad6601f8916826119e3565b8355505b6001600288020188555050505b505050505050565b7f4e487b7100000000000000000000000000000000000000000000000000000000600052601160045260246000fd5b6000611b29826111ec565b9150611b34836111ec565b9250828203905081811115611b4c57611b4b611aef565b5b92915050565b7f746f6b656e20646f6573206e6f74206578697374000000000000000000000000600082015250565b6000611b886014836110e7565b9150611b9382611b52565b602082019050919050565b60006020820190508181036000830152611bb781611b7b565b9050919050565b7f4572726f7220455243373231205472616e736665720000000000000000000000600082015250565b6000611bf46015836110e7565b9150611bff82611bbe565b602082019050919050565b60006020820190508181036000830152611c2381611be7565b9050919050565b7f4572726f7220455243373231202c547279696e6720746f207472616e7366657260008201527f206120746f6b656e20746865206164647265737320646f6573206e6f74206f7760208201527f6e20000000000000000000000000000000000000000000000000000000000000604082015250565b6000611cac6042836110e7565b9150611cb782611c2a565b606082019050919050565b60006020820190508181036000830152611cdb81611c9f565b9050919050565b6000611ced826111ec565b9150611cf8836111ec565b9250828201905080821115611d1057611d0f611aef565b5b92915050565b7f54686520726571756972656420616464726573732073686f756c64206e6f742060008201527f6265203000000000000000000000000000000000000000000000000000000000602082015250565b6000611d726024836110e7565b9150611d7d82611d16565b604082019050919050565b60006020820190508181036000830152611da181611d65565b9050919050565b7f4552433732313a20746f6b656e20616c7265616479206d696e74656400000000600082015250565b6000611dde601c836110e7565b9150611de982611da8565b602082019050919050565b60006020820190508181036000830152611e0d81611dd1565b905091905056fea26469706673582212200c1650bdff97bc3cfdb9e09dde7d5c6d8c5ac98541cec02d6db7fbab0a4376be64736f6c63430008110033",
  "immutableReferences": {},
  "source": "// SPDX-License-Identifier: MIT\r\npragma solidity ^0.8.0;\r\nimport './ERC721Connector.sol';\r\n\r\ncontract NFT is ERC721Connector{\r\n   \r\n   \r\n   //array to store our NFT's\r\n    string[] public nftArray;\r\n    mapping (string => bool) _nftExists ;\r\n\r\n    function mint (string memory _nft) public{\r\n       require(!_nftExists[_nft], 'Error - NFT already exists');\r\n       nftArray.push(_nft);\r\n       uint _id  = nftArray.length -1;\r\n        _mint(msg.sender, _id);\r\n        _nftExists[_nft] = true;\r\n    }\r\n\r\n\r\n\r\n  constructor() ERC721Connector('NFT', 'NFT')\r\n  {\r\n   \r\n\r\n  }\r\n \r\n}",
  "sourcePath": "C:\\Users\\Xcom\\Desktop\\THESIS\\code\\nft-marketplace - Copy\\src\\contracts\\NFT.sol",
  "compiler": {
    "name": "solc",
    "version": "0.8.17+commit.8df45f5f.Emscripten.clang"
  },
  "schemaVersion": "3.4.9",
  "updatedAt": "2022-12-03T01:51:47.820Z",
  "networkType": "ethereum",
  "devdoc": {
    "kind": "dev",
    "methods": {
      "supportsInterface(bytes4)": {
        "details": "Interface identification is specified in ERC-165. This function  uses less than 30,000 gas.",
        "params": {
          "interfaceID": "The interface identifier, as specified in ERC-165"
        },
        "returns": {
          "_0": "`true` if the contract implements `interfaceID` and  `interfaceID` is not 0xffffffff, `false` otherwise"
        }
      }
    },
    "version": 1
  },
  "userdoc": {
    "kind": "user",
    "methods": {
      "name()": {
        "notice": "A descriptive name for a collection of NFTs in this contract"
      },
      "supportsInterface(bytes4)": {
        "notice": "Query if a contract implements an interface"
      },
      "symbol()": {
        "notice": "An abbreviated name for NFTs in this contract"
      }
    },
    "version": 1
  }
}